:100000000C9434000C943E000C943E000C943E0082
:100010000C943E000C943E000C943E000C943E0068
:100020000C943E000C943E000C943E000C943E0058
:100030000C943E000C943E000C943E000C943E0048
:100040000C943E000C943E000C943E000C943E0038
:100050000C943E000C943E000C943E000C943E0028
:100060000C943E000C943E0011241FBECFEFD8E04C
:10007000DEBFCDBF0E9440000C946A000C940000CB
:1000800084B18C6084B92098189920C02A9A2B9842
:100090002FEF87EA91E6215080409040E1F700C0C1
:1000A00000002A982FEF8FE493EC2150804090407D
:1000B000E1F700C000002B9A2FEF87EA91E621506C
:1000C00080409040E1F700C00000DECF85B1837F23
:0800D00085B9DACFF894FFCFE7
:00000001FF
